:107E0000112484B714BE982F9D7009F0D1D085E05D
:107E10008093810082E08093C00088E18093C1005C
:107E200086E08093C20083E38093C4008EE0ABD0F1
:107E3000259A86E020E33CEF91E030938500209383
:107E4000840096BBB09BFECF1D9AA8958150A9F7E0
:107E5000C0E0D0E093E0F92EEE24E39425E0D22EAA
:107E600031E1C32E84D0813461F481D0182F91D0B8
:107E70001238F1F0113811F487E001C083E070D0BE
:107E80006CC0823411F484E103C0853419F485E0B8
:107E900088D063C0853541F46AD0C82F68D0D0E05F
:107EA000D82BCC0FDD1F58C0863521F484E079D063
:107EB00080E0E5CF843609F032C059D058D0B82ED2
:107EC00056D0A82E00E011E052D0F80181938F0126
:107ED000BE12FACF5ED0F5E4AF1201C0FFCFFE01B3
:107EE000F7BEE89507B600FCFDCFFE01A0E0B1E0CB
:107EF0008C9111962C91119790E0922B0C01E7BE7A
:107F0000E895112432961296BA12F2CFFE01D7BE2E
:107F1000E89507B600FCFDCFC7BEE8951EC08437C4
:107F200071F425D024D0B82E22D033D08E01F801A0
:107F300085918F0115D0BA94B110F9CF0EC0853755
:107F400039F427D08EE10CD085E90AD08FE097CFA5
:107F5000813511F488E017D01CD080E101D082CFA8
:107F60009091C00095FFFCCF8093C600089580914A
:107F7000C00087FFFCCF8091C00084FD01C0A895A0
:107F80008091C6000895E0E6F0E098E19083808358
:107F90000895EDDF803219F088E0F5DFFFCF84E14E
:107FA000DFCFCF93C82FE3DFC150E9F7CF91F1CFF7
:0C7FB000282E80E0E8DFE0E0FF270994C5
:0400000300007E007B
:00000001FF
