:10FC000011248FEF90E19EBF8DBF84B714BE982F53
:10FC10009D7009F0DAD085E08EBD82E08BB988E175
:10FC20008AB986E08093950089E189B98EE0BAD0DF
:10FC3000169A86E048E15EEF34E020E45DBD4CBDFD
:10FC400036BF06B602FEFDCF93B1922793B9A895B1
:10FC50008150A1F7C0E0D0E043E0B42EAA24A394E1
:10FC600055E0952E61E1862E96D0813461F493D0D3
:10FC7000182F9CD01238F1F0113811F487E001C030
:10FC800083E085D081C0823411F484E103C08534DF
:10FC900019F485E093D078C0853541F47CD0C82F25
:10FCA0007AD0D0E0D82BCC0FDD1F6DC0863521F483
:10FCB00084E084D080E0E5CF843609F043C06BD087
:10FCC000082F10E0102F002766D0082B64D0782E64
:10FCD0007801C12CDD24D3945ED0F60181936F01AD
:10FCE000F1E0EF1AF108C1F761D085E4781201C0A4
:10FCF000FFCFFE01B0926800E8958091680080FD1A
:10FD0000FCCFFE01A0E0B1E08C9111962C911197EF
:10FD100090E0922B0C01A0926800E8951124329695
:10FD20000250110912960115110571F7FE0190920A
:10FD30006800E8958091680080FDFCCF80926800A3
:10FD4000E89522C0843791F426D0082F10E0102FB8
:10FD5000002721D0082B1FD029D07E01F7018591E3
:10FD60007F0115D001501109C9F70EC0853739F44C
:10FD70001DD08EE10CD086E90AD082E082CF813599
:10FD800011F488E00FD012D080E101D06DCF5D9BDF
:10FD9000FECF8CB908955F9BFECF5C9901C0A895FA
:10FDA0008CB1089598E191BD81BD0895F4DF803252
:10FDB00019F088E0F7DFFFCF84E1E9CFCF93C82FB8
:10FDC000EADFC150E9F7CF91F1CF282E80E0EADFDA
:06FDD000E0E0FF270994AA
:040000030000FC00FD
:00000001FF
